:080000000C9473000C94A300A2
:100008000C94A7000C94AC000C94B0000C94000065
:100018000C9400000C9400000C9400000C94000058
:100028000C9400000C9400000C9400000C94000048
:100038000C9400000C9400000C9400000C94000038
:100048000C9400000C9400000C9400000C94000028
:100058000C9400000C9400000C9400000C94000018
:100068000C9400000C9400000C9400000C94000008
:100078000C9400000C9400000C9400000C940000F8
:100088000C9400001027E80364000A000100001027
:1000980000011000010053696B6C7573203A20252C
:1000A80064004973692054616E6B00425245414BAC
:1000B80021004164756B004275616E670049737475
:1000C80069726168617400456D657267656E637910
:1000D8002121210080C002000005DC000000F89406
:1000E800EE27ECBBF1E0F5BFE5BFE0936C008DE0D7
:1000F800A2E0BB27ED938A95E9F780E090E1A0E0C4
:10010800B1E0ED930197E9F7EEEDF0E08591959177
:10011800009761F0A591B59105901590BF01F00188
:1001280005900D920197E1F7FB01F0CF8BBFEFEF40
:10013800EDBFE0E1EEBFC0E0D5E00C94B600EA9375
:10014800EFB777240CC0EA93E1E04E2EE9911895B9
:10015800EA93EFB7539403C0EA93EFB75524EFBF80
:10016800E99118956097EFEFEABBE0E1EBBBEFEFA1
:10017800E4BBE0E0E5BBE1BBEFE1E2BBE0E0E2B914
:10018800E7E0E3B9EAEAE0936A00E0E0EABFEFE01B
:10019800E9BFE8BFA0E10E948A0378944424442080
:1001A80029F4E0E1EBBB0E94D103F9CF552011F40B
:1001B8004424F5CFE1E05E1618F07E2E0E94470336
:1001C80044240E94D1030E94EA03AAEAB0E00E94F4
:1001D8007703E3E1EBBB772019F40E94470371C072
:1001E800E1E0E41549F40E94EF03E1E0E41519F4B5
:1001F8000E944703E5CFF9CF0A9B03C00E9447033B
:1002080001C0DECF44240E94D1030E94EA03AAEB76
:10021800B0E00E947703E8E0EBBB772019F40E9476
:1002280047034FC0E1E0E41549F40E94EF03E1E021
:10023800E41519F40E944703E5CFF9CF099903C0E3
:100248000E94470301C0DECF44240E94D1030E94CC
:10025800EA03AFEBB0E00E947703E4E1EBBB772061
:1002680019F40E9447032DC0E1E0E415A9F44424E1
:10027800E0E1EBBB0E944703E0E0EA93A0E00E94C4
:100288003A03A5ECB0E00E947703E1E0E41519F425
:100298000E944703D9CFF9CF089912C0552019F405
:1002A8000E9447037CCFE0E0E51548F45A945520B6
:1002B80019F40E94470373CF0E94470381CF01C0FE
:1002C800C3CFE0E0EA93A0E00E943A03AFECB0E0CD
:1002D8000E947703E0E7EBBBFFCFFFCFBA93AA9367
:1002E8001A930A93AA81BB8112960E9449043097F7
:1002F80059F1AA81BB8114960E9449048F01309755
:1003080061F00230E0E01E0798F0F80131978F01A4
:10031800AA81BB811496ED93FC93AA81BB811296A6
:10032800ED91FD913196FE93EE933197AC81A083C8
:10033800AA81BB810E944904FF232AF0ED91FD9117
:100348003196FE93EE9306C0AA81BB81EFEFFFEFD3
:10035800ED93FC931981088125960895BA93AA9381
:1003680026970E94560410E0AC85BD85E0E0F0E0D9
:10037800ED93FC93EA89FB893196EA8BFB8B3197E5
:10038800E4912E2FE03009F415C1E12FE03039F463
:10039800253211F411E002C00E94FD030AC1E130C8
:1003A800A9F4253219F40E94FD0302C112E040E0CD
:1003B80000E02D3211F401E0FCC02B3211F44BE2C5
:1003C800F8C0203211F440E2F4C002C0E23039F43F
:1003D80050E013E0203311F40068EBC003C0E330B1
:1003E80009F0E7C0203310F02A3308F007C0AAE06C
:1003F8005A9F502DE22FE0535E0FDBC0E22FE33609
:1004080049F40E940404E889F989A481AA930E9406
:100418000A04CEC0E33741F40E9404040E94100489
:100428000E94B8031E2F0AC0E03761F40E9404043A
:100438000E9410040E94C4031E2F086002600F77F8
:1004480030E034C0E43611F0E93611F4046002C03B
:10045800E53731F4ECE8F0E0EE83FF8315E00CC0FB
:10046800E83511F4086003C0E83709F0A1C0E6E9EF
:10047800F0E0EE83FF8314E002FF14C00E9404043E
:100488000E941A04AB85AA233AF4EA85FB850E94E8
:100498004504EA87FB874DE2403011F01F5F01C039
:1004A8000B7F04C00E9404040E941A0400FD11C0BE
:1004B800151778F407FF08C002FF04C00B7F242F2C
:1004C800115001C020E301C020E20E94FD035150F9
:1004D800EFCF312F01FF17C03030A1F003FF06C066
:1004E800EE81FF812591EE83FF8305C0AE81BF8138
:1004F8002D91AE83BF830E94FD03503009F0515007
:100508003150EACF4BC020E3EE81FF810E944D04B9
:10051800E887F987EE81FF813296EE83FF83E885CD
:10052800F985AA85BB85AE17BF0750F02F5FA88550
:10053800B985EA85FB85EA1BFB0BEA87FB87EFCFCA
:100548002A3328F003FF02C0295F01C0295D04FD9A
:100558001AC0213320F4A885B985119709F409C078
:10056800531710F000FF01C013C020E207FF0BC0B3
:1005780020E3006102FF07C00B7F4A930E940A0430
:10058800503009F051500E94FD03503009F051508D
:100598003150A885B985129708F0B5CF00FF08C07B
:1005A800503031F05150E0E2EA930E940A04F8CF4B
:1005B80010E0E0CEAC85BD850E9449040E945D0430
:1005C80064960895FF92F82E26970E9458040E9478
:1005D8002204309719F4EFEFFFEF23C0DE011696DF
:1005E8000E9441048D010E942204EE83FF83E0E013
:1005F800E887E987DE011A960E9441040E944904AF
:10060800FA93EA931A930A93E2E7F1E0FA93EA93EA
:10061800DE011A96A3DE9F01AE81BF81E0E0EC9374
:10062800F9010E945F042A96FF900895AA93E5B302
:10063800EF70AE2FE881E07FEA2BE5BB81E18A9578
:10064800F1F7A99A81E18A95F1F7A99881E18A954C
:10065800F1F788C0AA93A881E9DFE881E295E883E9
:10066800A881E4DF87EA8A95F1F77CC0AA93E8813C
:10067800F0E0E050FB4FE081A981AE0FEBDF69802D
:10068800988022960895A2E00E942904ACE0E2DF57
:10069800A1E00E942904E0E09E2E6E2E0895AA9300
:1006A800A881AA3011F0681448F0E0E0EA93939426
:1006B800A92DDCDFA881AA3009F454C06394A89A54
:1006C800A881C8DFA8984EC0BA93AA931A93A981A3
:1006D800BA81ED91A983BA831E2FE03019F0A12FBA
:1006E800DEDFF5CF10C0BA93AA931A93E981FA8195
:1006F8003196E983FA833197E4911E2FE03019F09F
:10070800A12FCDDFF3CF188123960895AA93E4B3E0
:10071800E06FE4BBA19AA09AA29AA998A898AA986F
:100728008880E881E058E0930205E881E054E0938E
:100738000305A4E1B0E00E9437040E942F040E9440
:100748002F040E942F04A0E271DF8AEF90E0019746
:10075800F1F7A8E27FDFA4E07DDFA5E87BDFA6E074
:1007680079DF91DF21960895BA93AA93A991B99157
:10077800EE27FF276D91662311F03196FBCF089580
:10078800BA93AA93AA27BB27E991F991059000206B
:1007980011F01196FBCFFD010895FE01FA93EA933B
:1007A800EEE9F0E0FA93EA93E52DFF27662777272D
:1007B8000E94510484E00E94E6022896E0E0EA9351
:1007C800A0E00E943A03DE010C946803E0E0EA939B
:1007D800A1E00C943A034424E0E1EBBB0E944703F8
:1007E800E0E0EA93A0E00E943A03A3EBB0E00C94A7
:1007F80077032A93AD85BE85EF85F8890995089515
:10080800E889F9893497E88BF98B0895AD85BE8519
:10081800EF85F88909950895A889B98914960E94E1
:100828004904EE83FF83AE81BF810895A889B98901
:1008380014960E944904EA87FB870895DE011C96F6
:100848000E9441040E94490408950E942E03A3E0D7
:10085800B0E00C943704A0E30E941A038AEF90E0FA
:100868000197F1F70895109639F0A89584EC99E06E
:100878000197F1F71197C9F708950024AF0DB01D3E
:100888000895F195E195F0400895ED91FC91119747
:1008980008950590F491E02D08957A936A93FA9358
:1008A800EA9308955A934A933A932A931A930A9388
:1008B80008955D814C813B812A81198108810895C1
:00000001FF
